{
  "_format": "hh-sol-artifact-1",
  "contractName": "MSDSValidator",
  "sourceName": "contracts/MSDSValidator.sol",
  "abi": [
    {
      "anonymous": false,
      "inputs": [
        {
          "indexed": false,
          "internalType": "string",
          "name": "msdsId",
          "type": "string"
        },
        {
          "indexed": false,
          "internalType": "address",
          "name": "issuer",
          "type": "address"
        },
        {
          "indexed": false,
          "internalType": "bytes32",
          "name": "fileHash",
          "type": "bytes32"
        }
      ],
      "name": "MSDSRegistered",
      "type": "event"
    },
    {
      "anonymous": false,
      "inputs": [
        {
          "indexed": false,
          "internalType": "string",
          "name": "msdsId",
          "type": "string"
        },
        {
          "indexed": false,
          "internalType": "address",
          "name": "revoker",
          "type": "address"
        }
      ],
      "name": "MSDSRevoked",
      "type": "event"
    },
    {
      "anonymous": false,
      "inputs": [
        {
          "indexed": false,
          "internalType": "string",
          "name": "msdsId",
          "type": "string"
        },
        {
          "indexed": false,
          "internalType": "bool",
          "name": "isValid",
          "type": "bool"
        }
      ],
      "name": "MSDSVerified",
      "type": "event"
    },
    {
      "inputs": [
        {
          "internalType": "uint256",
          "name": "",
          "type": "uint256"
        }
      ],
      "name": "msdsIdList",
      "outputs": [
        {
          "internalType": "string",
          "name": "",
          "type": "string"
        }
      ],
      "stateMutability": "view",
      "type": "function"
    },
    {
      "inputs": [
        {
          "internalType": "string",
          "name": "",
          "type": "string"
        }
      ],
      "name": "msdsRecords",
      "outputs": [
        {
          "internalType": "address",
          "name": "issuer",
          "type": "address"
        },
        {
          "internalType": "bytes32",
          "name": "fileHash",
          "type": "bytes32"
        },
        {
          "internalType": "string",
          "name": "status",
          "type": "string"
        },
        {
          "internalType": "uint256",
          "name": "timestamp",
          "type": "uint256"
        },
        {
          "internalType": "bool",
          "name": "exists",
          "type": "bool"
        }
      ],
      "stateMutability": "view",
      "type": "function"
    },
    {
      "inputs": [
        {
          "internalType": "string",
          "name": "_msdsId",
          "type": "string"
        },
        {
          "internalType": "bytes32",
          "name": "_fileHash",
          "type": "bytes32"
        }
      ],
      "name": "registerMSDS",
      "outputs": [],
      "stateMutability": "nonpayable",
      "type": "function"
    },
    {
      "inputs": [
        {
          "internalType": "string",
          "name": "_msdsId",
          "type": "string"
        }
      ],
      "name": "revokeMSDS",
      "outputs": [],
      "stateMutability": "nonpayable",
      "type": "function"
    },
    {
      "inputs": [
        {
          "internalType": "string",
          "name": "_msdsId",
          "type": "string"
        },
        {
          "internalType": "bytes32",
          "name": "_uploadedHash",
          "type": "bytes32"
        }
      ],
      "name": "verifyMSDS",
      "outputs": [
        {
          "internalType": "bool",
          "name": "isValid",
          "type": "bool"
        },
        {
          "internalType": "string",
          "name": "status",
          "type": "string"
        },
        {
          "internalType": "address",
          "name": "issuer",
          "type": "address"
        }
      ],
      "stateMutability": "view",
      "type": "function"
    }
  ],
  "bytecode": "0x608060405234801561001057600080fd5b50611262806100206000396000f3fe608060405234801561001057600080fd5b50600436106100575760003560e01c80637936ade61461005c5780638265a25c14610090578063a3c9823b146100ac578063a7d74314146100de578063d7081774146100fa575b600080fd5b610076600480360381019061007191906109d1565b61012a565b604051610087959493929190610b27565b60405180910390f35b6100aa60048036038101906100a59190610bad565b61022b565b005b6100c660048036038101906100c19190610bad565b610435565b6040516100d593929190610c09565b60405180910390f35b6100f860048036038101906100f391906109d1565b610643565b005b610114600480360381019061010f9190610c73565b6107cb565b6040516101219190610ca0565b60405180910390f35b6000818051602081018201805184825260208301602085012081835280955050505050506000915090508060000160009054906101000a900473ffffffffffffffffffffffffffffffffffffffff169080600101549080600201805461018f90610cf1565b80601f01602080910402602001604051908101604052809291908181526020018280546101bb90610cf1565b80156102085780601f106101dd57610100808354040283529160200191610208565b820191906000526020600020905b8154815290600101906020018083116101eb57829003601f168201915b5050505050908060030154908060040160009054906101000a900460ff16905085565b60008260405161023b9190610d5e565b908152602001604051809103902060040160009054906101000a900460ff161561029a576040517f08c379a000000000000000000000000000000000000000000000000000000000815260040161029190610dc1565b60405180910390fd5b6040518060a001604052803373ffffffffffffffffffffffffffffffffffffffff1681526020018281526020016040518060400160405280600681526020017f414354495645000000000000000000000000000000000000000000000000000081525081526020014281526020016001151581525060008360405161031f9190610d5e565b908152602001604051809103902060008201518160000160006101000a81548173ffffffffffffffffffffffffffffffffffffffff021916908373ffffffffffffffffffffffffffffffffffffffff1602179055506020820151816001015560408201518160020190816103939190610f8d565b506060820151816003015560808201518160040160006101000a81548160ff0219169083151502179055509050506001829080600181540180825580915050600190039060005260206000200160009091909190915090816103f59190610f8d565b507fd872d9b8073ad1ec4bf205acd34f9f96fee7c4b69876287a1511cb7dfe0012718233836040516104299392919061105f565b60405180910390a15050565b6000606060008060008660405161044c9190610d5e565b90815260200160405180910390206040518060a00160405290816000820160009054906101000a900473ffffffffffffffffffffffffffffffffffffffff1673ffffffffffffffffffffffffffffffffffffffff1673ffffffffffffffffffffffffffffffffffffffff168152602001600182015481526020016002820180546104d590610cf1565b80601f016020809104026020016040519081016040528092919081815260200182805461050190610cf1565b801561054e5780601f106105235761010080835404028352916020019161054e565b820191906000526020600020905b81548152906001019060200180831161053157829003601f168201915b50505050508152602001600382015481526020016004820160009054906101000a900460ff161515151581525050905080608001516105c2576040517f08c379a00000000000000000000000000000000000000000000000000000000081526004016105b9906110e9565b60405180910390fd5b60006040516020016105d390611155565b6040516020818303038152906040528051906020012082604001516040516020016105fe9190610d5e565b604051602081830303815290604052805190602001201490508582602001511480156106275750805b9450848260400151836000015194509450945050509250925092565b600080826040516106549190610d5e565b908152602001604051809103902090508060040160009054906101000a900460ff166106b5576040517f08c379a00000000000000000000000000000000000000000000000000000000081526004016106ac906110e9565b60405180910390fd5b3373ffffffffffffffffffffffffffffffffffffffff168160000160009054906101000a900473ffffffffffffffffffffffffffffffffffffffff1673ffffffffffffffffffffffffffffffffffffffff1614610747576040517f08c379a000000000000000000000000000000000000000000000000000000000815260040161073e906111dc565b60405180910390fd5b6040518060400160405280600781526020017f5245564f4b45440000000000000000000000000000000000000000000000000081525081600201908161078d9190610f8d565b507f2cb3975fc66cb3d547d2a4d7fd43fdc0c4e5377637f98d9037ca2bd00eec7d5b82336040516107bf9291906111fc565b60405180910390a15050565b600181815481106107db57600080fd5b9060005260206000200160009150905080546107f690610cf1565b80601f016020809104026020016040519081016040528092919081815260200182805461082290610cf1565b801561086f5780601f106108445761010080835404028352916020019161086f565b820191906000526020600020905b81548152906001019060200180831161085257829003601f168201915b505050505081565b6000604051905090565b600080fd5b600080fd5b600080fd5b600080fd5b6000601f19601f8301169050919050565b7f4e487b7100000000000000000000000000000000000000000000000000000000600052604160045260246000fd5b6108de82610895565b810181811067ffffffffffffffff821117156108fd576108fc6108a6565b5b80604052505050565b6000610910610877565b905061091c82826108d5565b919050565b600067ffffffffffffffff82111561093c5761093b6108a6565b5b61094582610895565b9050602081019050919050565b82818337600083830152505050565b600061097461096f84610921565b610906565b9050828152602081018484840111156109905761098f610890565b5b61099b848285610952565b509392505050565b600082601f8301126109b8576109b761088b565b5b81356109c8848260208601610961565b91505092915050565b6000602082840312156109e7576109e6610881565b5b600082013567ffffffffffffffff811115610a0557610a04610886565b5b610a11848285016109a3565b91505092915050565b600073ffffffffffffffffffffffffffffffffffffffff82169050919050565b6000610a4582610a1a565b9050919050565b610a5581610a3a565b82525050565b6000819050919050565b610a6e81610a5b565b82525050565b600081519050919050565b600082825260208201905092915050565b60005b83811015610aae578082015181840152602081019050610a93565b60008484015250505050565b6000610ac582610a74565b610acf8185610a7f565b9350610adf818560208601610a90565b610ae881610895565b840191505092915050565b6000819050919050565b610b0681610af3565b82525050565b60008115159050919050565b610b2181610b0c565b82525050565b600060a082019050610b3c6000830188610a4c565b610b496020830187610a65565b8181036040830152610b5b8186610aba565b9050610b6a6060830185610afd565b610b776080830184610b18565b9695505050505050565b610b8a81610a5b565b8114610b9557600080fd5b50565b600081359050610ba781610b81565b92915050565b60008060408385031215610bc457610bc3610881565b5b600083013567ffffffffffffffff811115610be257610be1610886565b5b610bee858286016109a3565b9250506020610bff85828601610b98565b9150509250929050565b6000606082019050610c1e6000830186610b18565b8181036020830152610c308185610aba565b9050610c3f6040830184610a4c565b949350505050565b610c5081610af3565b8114610c5b57600080fd5b50565b600081359050610c6d81610c47565b92915050565b600060208284031215610c8957610c88610881565b5b6000610c9784828501610c5e565b91505092915050565b60006020820190508181036000830152610cba8184610aba565b905092915050565b7f4e487b7100000000000000000000000000000000000000000000000000000000600052602260045260246000fd5b60006002820490506001821680610d0957607f821691505b602082108103610d1c57610d1b610cc2565b5b50919050565b600081905092915050565b6000610d3882610a74565b610d428185610d22565b9350610d52818560208601610a90565b80840191505092915050565b6000610d6a8284610d2d565b915081905092915050565b7f4d53445320494420737564616820616461210000000000000000000000000000600082015250565b6000610dab601283610a7f565b9150610db682610d75565b602082019050919050565b60006020820190508181036000830152610dda81610d9e565b9050919050565b60008190508160005260206000209050919050565b60006020601f8301049050919050565b600082821b905092915050565b600060088302610e437fffffffffffffffffffffffffffffffffffffffffffffffffffffffffffffffff82610e06565b610e4d8683610e06565b95508019841693508086168417925050509392505050565b6000819050919050565b6000610e8a610e85610e8084610af3565b610e65565b610af3565b9050919050565b6000819050919050565b610ea483610e6f565b610eb8610eb082610e91565b848454610e13565b825550505050565b600090565b610ecd610ec0565b610ed8818484610e9b565b505050565b5b81811015610efc57610ef1600082610ec5565b600181019050610ede565b5050565b601f821115610f4157610f1281610de1565b610f1b84610df6565b81016020851015610f2a578190505b610f3e610f3685610df6565b830182610edd565b50505b505050565b600082821c905092915050565b6000610f6460001984600802610f46565b1980831691505092915050565b6000610f7d8383610f53565b9150826002028217905092915050565b610f9682610a74565b67ffffffffffffffff811115610faf57610fae6108a6565b5b610fb98254610cf1565b610fc4828285610f00565b600060209050601f831160018114610ff75760008415610fe5578287015190505b610fef8582610f71565b865550611057565b601f19841661100586610de1565b60005b8281101561102d57848901518255600182019150602085019450602081019050611008565b8683101561104a5784890151611046601f891682610f53565b8355505b6001600288020188555050505b505050505050565b600060608201905081810360008301526110798186610aba565b90506110886020830185610a4c565b6110956040830184610a65565b949350505050565b7f4d53445320494420746964616b20646974656d756b616e210000000000000000600082015250565b60006110d3601883610a7f565b91506110de8261109d565b602082019050919050565b60006020820190508181036000830152611102816110c6565b9050919050565b7f4143544956450000000000000000000000000000000000000000000000000000600082015250565b600061113f600683610d22565b915061114a82611109565b600682019050919050565b600061116082611132565b9150819050919050565b7f48616e79612070656d696c696b2079616e672062697361206d656e636162757460008201527f2100000000000000000000000000000000000000000000000000000000000000602082015250565b60006111c6602183610a7f565b91506111d18261116a565b604082019050919050565b600060208201905081810360008301526111f5816111b9565b9050919050565b600060408201905081810360008301526112168185610aba565b90506112256020830184610a4c565b939250505056fea26469706673582212202c32b9ce23b3e57e6fb83b4ed0940fab5500c92b7564abdd37e5b3a1e6ed380b64736f6c63430008140033",
  "linkReferences": {},
  "deployedLinkReferences": {}
}