{"contracts/MSDSValidator.sol":{"MSDSValidator":{"abi":[{"anonymous":false,"inputs":[{"indexed":false,"internalType":"string","name":"msdsId","type":"string"},{"indexed":false,"internalType":"address","name":"issuer","type":"address"},{"indexed":false,"internalType":"bytes32","name":"fileHash","type":"bytes32"}],"name":"MSDSRegistered","type":"event"},{"anonymous":false,"inputs":[{"indexed":false,"internalType":"string","name":"msdsId","type":"string"},{"indexed":false,"internalType":"address","name":"revoker","type":"address"}],"name":"MSDSRevoked","type":"event"},{"anonymous":false,"inputs":[{"indexed":false,"internalType":"string","name":"msdsId","type":"string"},{"indexed":false,"internalType":"bool","name":"isValid","type":"bool"}],"name":"MSDSVerified","type":"event"},{"inputs":[{"internalType":"uint256","name":"","type":"uint256"}],"name":"msdsIdList","outputs":[{"internalType":"string","name":"","type":"string"}],"stateMutability":"view","type":"function"},{"inputs":[{"internalType":"string","name":"","type":"string"}],"name":"msdsRecords","outputs":[{"internalType":"address","name":"issuer","type":"address"},{"internalType":"bytes32","name":"fileHash","type":"bytes32"},{"internalType":"string","name":"status","type":"string"},{"internalType":"uint256","name":"timestamp","type":"uint256"},{"internalType":"bool","name":"exists","type":"bool"}],"stateMutability":"view","type":"function"},{"inputs":[{"internalType":"string","name":"_msdsId","type":"string"},{"internalType":"bytes32","name":"_fileHash","type":"bytes32"}],"name":"registerMSDS","outputs":[],"stateMutability":"nonpayable","type":"function"},{"inputs":[{"internalType":"string","name":"_msdsId","type":"string"}],"name":"revokeMSDS","outputs":[],"stateMutability":"nonpayable","type":"function"},{"inputs":[{"internalType":"string","name":"_msdsId","type":"string"},{"internalType":"bytes32","name":"_uploadedHash","type":"bytes32"}],"name":"verifyMSDS","outputs":[{"internalType":"bool","name":"isValid","type":"bool"},{"internalType":"string","name":"status","type":"string"},{"internalType":"address","name":"issuer","type":"address"}],"stateMutability":"view","type":"function"}],"evm":{"bytecode":{"linkReferences":{},"object":"608060405234801561001057600080fd5b50611262806100206000396000f3fe608060405234801561001057600080fd5b50600436106100575760003560e01c80637936ade61461005c5780638265a25c14610090578063a3c9823b146100ac578063a7d74314146100de578063d7081774146100fa575b600080fd5b610076600480360381019061007191906109d1565b61012a565b604051610087959493929190610b27565b60405180910390f35b6100aa60048036038101906100a59190610bad565b61022b565b005b6100c660048036038101906100c19190610bad565b610435565b6040516100d593929190610c09565b60405180910390f35b6100f860048036038101906100f391906109d1565b610643565b005b610114600480360381019061010f9190610c73565b6107cb565b6040516101219190610ca0565b60405180910390f35b6000818051602081018201805184825260208301602085012081835280955050505050506000915090508060000160009054906101000a900473ffffffffffffffffffffffffffffffffffffffff169080600101549080600201805461018f90610cf1565b80601f01602080910402602001604051908101604052809291908181526020018280546101bb90610cf1565b80156102085780601f106101dd57610100808354040283529160200191610208565b820191906000526020600020905b8154815290600101906020018083116101eb57829003601f168201915b5050505050908060030154908060040160009054906101000a900460ff16905085565b60008260405161023b9190610d5e565b908152602001604051809103902060040160009054906101000a900460ff161561029a576040517f08c379a000000000000000000000000000000000000000000000000000000000815260040161029190610dc1565b60405180910390fd5b6040518060a001604052803373ffffffffffffffffffffffffffffffffffffffff1681526020018281526020016040518060400160405280600681526020017f414354495645000000000000000000000000000000000000000000000000000081525081526020014281526020016001151581525060008360405161031f9190610d5e565b908152602001604051809103902060008201518160000160006101000a81548173ffffffffffffffffffffffffffffffffffffffff021916908373ffffffffffffffffffffffffffffffffffffffff1602179055506020820151816001015560408201518160020190816103939190610f8d565b506060820151816003015560808201518160040160006101000a81548160ff0219169083151502179055509050506001829080600181540180825580915050600190039060005260206000200160009091909190915090816103f59190610f8d565b507fd872d9b8073ad1ec4bf205acd34f9f96fee7c4b69876287a1511cb7dfe0012718233836040516104299392919061105f565b60405180910390a15050565b6000606060008060008660405161044c9190610d5e565b90815260200160405180910390206040518060a00160405290816000820160009054906101000a900473ffffffffffffffffffffffffffffffffffffffff1673ffffffffffffffffffffffffffffffffffffffff1673ffffffffffffffffffffffffffffffffffffffff168152602001600182015481526020016002820180546104d590610cf1565b80601f016020809104026020016040519081016040528092919081815260200182805461050190610cf1565b801561054e5780601f106105235761010080835404028352916020019161054e565b820191906000526020600020905b81548152906001019060200180831161053157829003601f168201915b50505050508152602001600382015481526020016004820160009054906101000a900460ff161515151581525050905080608001516105c2576040517f08c379a00000000000000000000000000000000000000000000000000000000081526004016105b9906110e9565b60405180910390fd5b60006040516020016105d390611155565b6040516020818303038152906040528051906020012082604001516040516020016105fe9190610d5e565b604051602081830303815290604052805190602001201490508582602001511480156106275750805b9450848260400151836000015194509450945050509250925092565b600080826040516106549190610d5e565b908152602001604051809103902090508060040160009054906101000a900460ff166106b5576040517f08c379a00000000000000000000000000000000000000000000000000000000081526004016106ac906110e9565b60405180910390fd5b3373ffffffffffffffffffffffffffffffffffffffff168160000160009054906101000a900473ffffffffffffffffffffffffffffffffffffffff1673ffffffffffffffffffffffffffffffffffffffff1614610747576040517f08c379a000000000000000000000000000000000000000000000000000000000815260040161073e906111dc565b60405180910390fd5b6040518060400160405280600781526020017f5245564f4b45440000000000000000000000000000000000000000000000000081525081600201908161078d9190610f8d565b507f2cb3975fc66cb3d547d2a4d7fd43fdc0c4e5377637f98d9037ca2bd00eec7d5b82336040516107bf9291906111fc565b60405180910390a15050565b600181815481106107db57600080fd5b9060005260206000200160009150905080546107f690610cf1565b80601f016020809104026020016040519081016040528092919081815260200182805461082290610cf1565b801561086f5780601f106108445761010080835404028352916020019161086f565b820191906000526020600020905b81548152906001019060200180831161085257829003601f168201915b505050505081565b6000604051905090565b600080fd5b600080fd5b600080fd5b600080fd5b6000601f19601f8301169050919050565b7f4e487b7100000000000000000000000000000000000000000000000000000000600052604160045260246000fd5b6108de82610895565b810181811067ffffffffffffffff821117156108fd576108fc6108a6565b5b80604052505050565b6000610910610877565b905061091c82826108d5565b919050565b600067ffffffffffffffff82111561093c5761093b6108a6565b5b61094582610895565b9050602081019050919050565b82818337600083830152505050565b600061097461096f84610921565b610906565b9050828152602081018484840111156109905761098f610890565b5b61099b848285610952565b509392505050565b600082601f8301126109b8576109b761088b565b5b81356109c8848260208601610961565b91505092915050565b6000602082840312156109e7576109e6610881565b5b600082013567ffffffffffffffff811115610a0557610a04610886565b5b610a11848285016109a3565b91505092915050565b600073ffffffffffffffffffffffffffffffffffffffff82169050919050565b6000610a4582610a1a565b9050919050565b610a5581610a3a565b82525050565b6000819050919050565b610a6e81610a5b565b82525050565b600081519050919050565b600082825260208201905092915050565b60005b83811015610aae578082015181840152602081019050610a93565b60008484015250505050565b6000610ac582610a74565b610acf8185610a7f565b9350610adf818560208601610a90565b610ae881610895565b840191505092915050565b6000819050919050565b610b0681610af3565b82525050565b60008115159050919050565b610b2181610b0c565b82525050565b600060a082019050610b3c6000830188610a4c565b610b496020830187610a65565b8181036040830152610b5b8186610aba565b9050610b6a6060830185610afd565b610b776080830184610b18565b9695505050505050565b610b8a81610a5b565b8114610b9557600080fd5b50565b600081359050610ba781610b81565b92915050565b60008060408385031215610bc457610bc3610881565b5b600083013567ffffffffffffffff811115610be257610be1610886565b5b610bee858286016109a3565b9250506020610bff85828601610b98565b9150509250929050565b6000606082019050610c1e6000830186610b18565b8181036020830152610c308185610aba565b9050610c3f6040830184610a4c565b949350505050565b610c5081610af3565b8114610c5b57600080fd5b50565b600081359050610c6d81610c47565b92915050565b600060208284031215610c8957610c88610881565b5b6000610c9784828501610c5e565b91505092915050565b60006020820190508181036000830152610cba8184610aba565b905092915050565b7f4e487b7100000000000000000000000000000000000000000000000000000000600052602260045260246000fd5b60006002820490506001821680610d0957607f821691505b602082108103610d1c57610d1b610cc2565b5b50919050565b600081905092915050565b6000610d3882610a74565b610d428185610d22565b9350610d52818560208601610a90565b80840191505092915050565b6000610d6a8284610d2d565b915081905092915050565b7f4d53445320494420737564616820616461210000000000000000000000000000600082015250565b6000610dab601283610a7f565b9150610db682610d75565b602082019050919050565b60006020820190508181036000830152610dda81610d9e565b9050919050565b60008190508160005260206000209050919050565b60006020601f8301049050919050565b600082821b905092915050565b600060088302610e437fffffffffffffffffffffffffffffffffffffffffffffffffffffffffffffffff82610e06565b610e4d8683610e06565b95508019841693508086168417925050509392505050565b6000819050919050565b6000610e8a610e85610e8084610af3565b610e65565b610af3565b9050919050565b6000819050919050565b610ea483610e6f565b610eb8610eb082610e91565b848454610e13565b825550505050565b600090565b610ecd610ec0565b610ed8818484610e9b565b505050565b5b81811015610efc57610ef1600082610ec5565b600181019050610ede565b5050565b601f821115610f4157610f1281610de1565b610f1b84610df6565b81016020851015610f2a578190505b610f3e610f3685610df6565b830182610edd565b50505b505050565b600082821c905092915050565b6000610f6460001984600802610f46565b1980831691505092915050565b6000610f7d8383610f53565b9150826002028217905092915050565b610f9682610a74565b67ffffffffffffffff811115610faf57610fae6108a6565b5b610fb98254610cf1565b610fc4828285610f00565b600060209050601f831160018114610ff75760008415610fe5578287015190505b610fef8582610f71565b865550611057565b601f19841661100586610de1565b60005b8281101561102d57848901518255600182019150602085019450602081019050611008565b8683101561104a5784890151611046601f891682610f53565b8355505b6001600288020188555050505b505050505050565b600060608201905081810360008301526110798186610aba565b90506110886020830185610a4c565b6110956040830184610a65565b949350505050565b7f4d53445320494420746964616b20646974656d756b616e210000000000000000600082015250565b60006110d3601883610a7f565b91506110de8261109d565b602082019050919050565b60006020820190508181036000830152611102816110c6565b9050919050565b7f4143544956450000000000000000000000000000000000000000000000000000600082015250565b600061113f600683610d22565b915061114a82611109565b600682019050919050565b600061116082611132565b9150819050919050565b7f48616e79612070656d696c696b2079616e672062697361206d656e636162757460008201527f2100000000000000000000000000000000000000000000000000000000000000602082015250565b60006111c6602183610a7f565b91506111d18261116a565b604082019050919050565b600060208201905081810360008301526111f5816111b9565b9050919050565b600060408201905081810360008301526112168185610aba565b90506112256020830184610a4c565b939250505056fea26469706673582212202c32b9ce23b3e57e6fb83b4ed0940fab5500c92b7564abdd37e5b3a1e6ed380b64736f6c63430008140033","opcodes":"PUSH1 0x80 PUSH1 0x40 MSTORE CALLVALUE DUP1 ISZERO PUSH2 0x10 JUMPI PUSH1 0x0 DUP1 REVERT JUMPDEST POP PUSH2 0x1262 DUP1 PUSH2 0x20 PUSH1 0x0 CODECOPY PUSH1 0x0 RETURN INVALID PUSH1 0x80 PUSH1 0x40 MSTORE CALLVALUE DUP1 ISZERO PUSH2 0x10 JUMPI PUSH1 0x0 DUP1 REVERT JUMPDEST POP PUSH1 0x4 CALLDATASIZE LT PUSH2 0x57 JUMPI PUSH1 0x0 CALLDATALOAD PUSH1 0xE0 SHR DUP1 PUSH4 0x7936ADE6 EQ PUSH2 0x5C JUMPI DUP1 PUSH4 0x8265A25C EQ PUSH2 0x90 JUMPI DUP1 PUSH4 0xA3C9823B EQ PUSH2 0xAC JUMPI DUP1 PUSH4 0xA7D74314 EQ PUSH2 0xDE JUMPI DUP1 PUSH4 0xD7081774 EQ PUSH2 0xFA JUMPI JUMPDEST PUSH1 0x0 DUP1 REVERT JUMPDEST PUSH2 0x76 PUSH1 0x4 DUP1 CALLDATASIZE SUB DUP2 ADD SWAP1 PUSH2 0x71 SWAP2 SWAP1 PUSH2 0x9D1 JUMP JUMPDEST PUSH2 0x12A JUMP JUMPDEST PUSH1 0x40 MLOAD PUSH2 0x87 SWAP6 SWAP5 SWAP4 SWAP3 SWAP2 SWAP1 PUSH2 0xB27 JUMP JUMPDEST PUSH1 0x40 MLOAD DUP1 SWAP2 SUB SWAP1 RETURN JUMPDEST PUSH2 0xAA PUSH1 0x4 DUP1 CALLDATASIZE SUB DUP2 ADD SWAP1 PUSH2 0xA5 SWAP2 SWAP1 PUSH2 0xBAD JUMP JUMPDEST PUSH2 0x22B JUMP JUMPDEST STOP JUMPDEST PUSH2 0xC6 PUSH1 0x4 DUP1 CALLDATASIZE SUB DUP2 ADD SWAP1 PUSH2 0xC1 SWAP2 SWAP1 PUSH2 0xBAD JUMP JUMPDEST PUSH2 0x435 JUMP JUMPDEST PUSH1 0x40 MLOAD PUSH2 0xD5 SWAP4 SWAP3 SWAP2 SWAP1 PUSH2 0xC09 JUMP JUMPDEST PUSH1 0x40 MLOAD DUP1 SWAP2 SUB SWAP1 RETURN JUMPDEST PUSH2 0xF8 PUSH1 0x4 DUP1 CALLDATASIZE SUB DUP2 ADD SWAP1 PUSH2 0xF3 SWAP2 SWAP1 PUSH2 0x9D1 JUMP JUMPDEST PUSH2 0x643 JUMP JUMPDEST STOP JUMPDEST PUSH2 0x114 PUSH1 0x4 DUP1 CALLDATASIZE SUB DUP2 ADD SWAP1 PUSH2 0x10F SWAP2 SWAP1 PUSH2 0xC73 JUMP JUMPDEST PUSH2 0x7CB JUMP JUMPDEST PUSH1 0x40 MLOAD PUSH2 0x121 SWAP2 SWAP1 PUSH2 0xCA0 JUMP JUMPDEST PUSH1 0x40 MLOAD DUP1 SWAP2 SUB SWAP1 RETURN JUMPDEST PUSH1 0x0 DUP2 DUP1 MLOAD PUSH1 0x20 DUP2 ADD DUP3 ADD DUP1 MLOAD DUP5 DUP3 MSTORE PUSH1 0x20 DUP4 ADD PUSH1 0x20 DUP6 ADD KECCAK256 DUP2 DUP4 MSTORE DUP1 SWAP6 POP POP POP POP POP POP PUSH1 0x0 SWAP2 POP SWAP1 POP DUP1 PUSH1 0x0 ADD PUSH1 0x0 SWAP1 SLOAD SWAP1 PUSH2 0x100 EXP SWAP1 DIV PUSH20 0xFFFFFFFFFFFFFFFFFFFFFFFFFFFFFFFFFFFFFFFF AND SWAP1 DUP1 PUSH1 0x1 ADD SLOAD SWAP1 DUP1 PUSH1 0x2 ADD DUP1 SLOAD PUSH2 0x18F SWAP1 PUSH2 0xCF1 JUMP JUMPDEST DUP1 PUSH1 0x1F ADD PUSH1 0x20 DUP1 SWAP2 DIV MUL PUSH1 0x20 ADD PUSH1 0x40 MLOAD SWAP1 DUP2 ADD PUSH1 0x40 MSTORE DUP1 SWAP3 SWAP2 SWAP1 DUP2 DUP2 MSTORE PUSH1 0x20 ADD DUP3 DUP1 SLOAD PUSH2 0x1BB SWAP1 PUSH2 0xCF1 JUMP JUMPDEST DUP1 ISZERO PUSH2 0x208 JUMPI DUP1 PUSH1 0x1F LT PUSH2 0x1DD JUMPI PUSH2 0x100 DUP1 DUP4 SLOAD DIV MUL DUP4 MSTORE SWAP2 PUSH1 0x20 ADD SWAP2 PUSH2 0x208 JUMP JUMPDEST DUP3 ADD SWAP2 SWAP1 PUSH1 0x0 MSTORE PUSH1 0x20 PUSH1 0x0 KECCAK256 SWAP1 JUMPDEST DUP2 SLOAD DUP2 MSTORE SWAP1 PUSH1 0x1 ADD SWAP1 PUSH1 0x20 ADD DUP1 DUP4 GT PUSH2 0x1EB JUMPI DUP3 SWAP1 SUB PUSH1 0x1F AND DUP3 ADD SWAP2 JUMPDEST POP POP POP POP POP SWAP1 DUP1 PUSH1 0x3 ADD SLOAD SWAP1 DUP1 PUSH1 0x4 ADD PUSH1 0x0 SWAP1 SLOAD SWAP1 PUSH2 0x100 EXP SWAP1 DIV PUSH1 0xFF AND SWAP1 POP DUP6 JUMP JUMPDEST PUSH1 0x0 DUP3 PUSH1 0x40 MLOAD PUSH2 0x23B SWAP2 SWAP1 PUSH2 0xD5E JUMP JUMPDEST SWAP1 DUP2 MSTORE PUSH1 0x20 ADD PUSH1 0x40 MLOAD DUP1 SWAP2 SUB SWAP1 KECCAK256 PUSH1 0x4 ADD PUSH1 0x0 SWAP1 SLOAD SWAP1 PUSH2 0x100 EXP SWAP1 DIV PUSH1 0xFF AND ISZERO PUSH2 0x29A JUMPI PUSH1 0x40 MLOAD PUSH32 0x8C379A000000000000000000000000000000000000000000000000000000000 DUP2 MSTORE PUSH1 0x4 ADD PUSH2 0x291 SWAP1 PUSH2 0xDC1 JUMP JUMPDEST PUSH1 0x40 MLOAD DUP1 SWAP2 SUB SWAP1 REVERT JUMPDEST PUSH1 0x40 MLOAD DUP1 PUSH1 0xA0 ADD PUSH1 0x40 MSTORE DUP1 CALLER PUSH20 0xFFFFFFFFFFFFFFFFFFFFFFFFFFFFFFFFFFFFFFFF AND DUP2 MSTORE PUSH1 0x20 ADD DUP3 DUP2 MSTORE PUSH1 0x20 ADD PUSH1 0x40 MLOAD DUP1 PUSH1 0x40 ADD PUSH1 0x40 MSTORE DUP1 PUSH1 0x6 DUP2 MSTORE PUSH1 0x20 ADD PUSH32 0x4143544956450000000000000000000000000000000000000000000000000000 DUP2 MSTORE POP DUP2 MSTORE PUSH1 0x20 ADD TIMESTAMP DUP2 MSTORE PUSH1 0x20 ADD PUSH1 0x1 ISZERO ISZERO DUP2 MSTORE POP PUSH1 0x0 DUP4 PUSH1 0x40 MLOAD PUSH2 0x31F SWAP2 SWAP1 PUSH2 0xD5E JUMP JUMPDEST SWAP1 DUP2 MSTORE PUSH1 0x20 ADD PUSH1 0x40 MLOAD DUP1 SWAP2 SUB SWAP1 KECCAK256 PUSH1 0x0 DUP3 ADD MLOAD DUP2 PUSH1 0x0 ADD PUSH1 0x0 PUSH2 0x100 EXP DUP2 SLOAD DUP2 PUSH20 0xFFFFFFFFFFFFFFFFFFFFFFFFFFFFFFFFFFFFFFFF MUL NOT AND SWAP1 DUP4 PUSH20 0xFFFFFFFFFFFFFFFFFFFFFFFFFFFFFFFFFFFFFFFF AND MUL OR SWAP1 SSTORE POP PUSH1 0x20 DUP3 ADD MLOAD DUP2 PUSH1 0x1 ADD SSTORE PUSH1 0x40 DUP3 ADD MLOAD DUP2 PUSH1 0x2 ADD SWAP1 DUP2 PUSH2 0x393 SWAP2 SWAP1 PUSH2 0xF8D JUMP JUMPDEST POP PUSH1 0x60 DUP3 ADD MLOAD DUP2 PUSH1 0x3 ADD SSTORE PUSH1 0x80 DUP3 ADD MLOAD DUP2 PUSH1 0x4 ADD PUSH1 0x0 PUSH2 0x100 EXP DUP2 SLOAD DUP2 PUSH1 0xFF MUL NOT AND SWAP1 DUP4 ISZERO ISZERO MUL OR SWAP1 SSTORE POP SWAP1 POP POP PUSH1 0x1 DUP3 SWAP1 DUP1 PUSH1 0x1 DUP2 SLOAD ADD DUP1 DUP3 SSTORE DUP1 SWAP2 POP POP PUSH1 0x1 SWAP1 SUB SWAP1 PUSH1 0x0 MSTORE PUSH1 0x20 PUSH1 0x0 KECCAK256 ADD PUSH1 0x0 SWAP1 SWAP2 SWAP1 SWAP2 SWAP1 SWAP2 POP SWAP1 DUP2 PUSH2 0x3F5 SWAP2 SWAP1 PUSH2 0xF8D JUMP JUMPDEST POP PUSH32 0xD872D9B8073AD1EC4BF205ACD34F9F96FEE7C4B69876287A1511CB7DFE001271 DUP3 CALLER DUP4 PUSH1 0x40 MLOAD PUSH2 0x429 SWAP4 SWAP3 SWAP2 SWAP1 PUSH2 0x105F JUMP JUMPDEST PUSH1 0x40 MLOAD DUP1 SWAP2 SUB SWAP1 LOG1 POP POP JUMP JUMPDEST PUSH1 0x0 PUSH1 0x60 PUSH1 0x0 DUP1 PUSH1 0x0 DUP7 PUSH1 0x40 MLOAD PUSH2 0x44C SWAP2 SWAP1 PUSH2 0xD5E JUMP JUMPDEST SWAP1 DUP2 MSTORE PUSH1 0x20 ADD PUSH1 0x40 MLOAD DUP1 SWAP2 SUB SWAP1 KECCAK256 PUSH1 0x40 MLOAD DUP1 PUSH1 0xA0 ADD PUSH1 0x40 MSTORE SWAP1 DUP2 PUSH1 0x0 DUP3 ADD PUSH1 0x0 SWAP1 SLOAD SWAP1 PUSH2 0x100 EXP SWAP1 DIV PUSH20 0xFFFFFFFFFFFFFFFFFFFFFFFFFFFFFFFFFFFFFFFF AND PUSH20 0xFFFFFFFFFFFFFFFFFFFFFFFFFFFFFFFFFFFFFFFF AND PUSH20 0xFFFFFFFFFFFFFFFFFFFFFFFFFFFFFFFFFFFFFFFF AND DUP2 MSTORE PUSH1 0x20 ADD PUSH1 0x1 DUP3 ADD SLOAD DUP2 MSTORE PUSH1 0x20 ADD PUSH1 0x2 DUP3 ADD DUP1 SLOAD PUSH2 0x4D5 SWAP1 PUSH2 0xCF1 JUMP JUMPDEST DUP1 PUSH1 0x1F ADD PUSH1 0x20 DUP1 SWAP2 DIV MUL PUSH1 0x20 ADD PUSH1 0x40 MLOAD SWAP1 DUP2 ADD PUSH1 0x40 MSTORE DUP1 SWAP3 SWAP2 SWAP1 DUP2 DUP2 MSTORE PUSH1 0x20 ADD DUP3 DUP1 SLOAD PUSH2 0x501 SWAP1 PUSH2 0xCF1 JUMP JUMPDEST DUP1 ISZERO PUSH2 0x54E JUMPI DUP1 PUSH1 0x1F LT PUSH2 0x523 JUMPI PUSH2 0x100 DUP1 DUP4 SLOAD DIV MUL DUP4 MSTORE SWAP2 PUSH1 0x20 ADD SWAP2 PUSH2 0x54E JUMP JUMPDEST DUP3 ADD SWAP2 SWAP1 PUSH1 0x0 MSTORE PUSH1 0x20 PUSH1 0x0 KECCAK256 SWAP1 JUMPDEST DUP2 SLOAD DUP2 MSTORE SWAP1 PUSH1 0x1 ADD SWAP1 PUSH1 0x20 ADD DUP1 DUP4 GT PUSH2 0x531 JUMPI DUP3 SWAP1 SUB PUSH1 0x1F AND DUP3 ADD SWAP2 JUMPDEST POP POP POP POP POP DUP2 MSTORE PUSH1 0x20 ADD PUSH1 0x3 DUP3 ADD SLOAD DUP2 MSTORE PUSH1 0x20 ADD PUSH1 0x4 DUP3 ADD PUSH1 0x0 SWAP1 SLOAD SWAP1 PUSH2 0x100 EXP SWAP1 DIV PUSH1 0xFF AND ISZERO ISZERO ISZERO ISZERO DUP2 MSTORE POP POP SWAP1 POP DUP1 PUSH1 0x80 ADD MLOAD PUSH2 0x5C2 JUMPI PUSH1 0x40 MLOAD PUSH32 0x8C379A000000000000000000000000000000000000000000000000000000000 DUP2 MSTORE PUSH1 0x4 ADD PUSH2 0x5B9 SWAP1 PUSH2 0x10E9 JUMP JUMPDEST PUSH1 0x40 MLOAD DUP1 SWAP2 SUB SWAP1 REVERT JUMPDEST PUSH1 0x0 PUSH1 0x40 MLOAD PUSH1 0x20 ADD PUSH2 0x5D3 SWAP1 PUSH2 0x1155 JUMP JUMPDEST PUSH1 0x40 MLOAD PUSH1 0x20 DUP2 DUP4 SUB SUB DUP2 MSTORE SWAP1 PUSH1 0x40 MSTORE DUP1 MLOAD SWAP1 PUSH1 0x20 ADD KECCAK256 DUP3 PUSH1 0x40 ADD MLOAD PUSH1 0x40 MLOAD PUSH1 0x20 ADD PUSH2 0x5FE SWAP2 SWAP1 PUSH2 0xD5E JUMP JUMPDEST PUSH1 0x40 MLOAD PUSH1 0x20 DUP2 DUP4 SUB SUB DUP2 MSTORE SWAP1 PUSH1 0x40 MSTORE DUP1 MLOAD SWAP1 PUSH1 0x20 ADD KECCAK256 EQ SWAP1 POP DUP6 DUP3 PUSH1 0x20 ADD MLOAD EQ DUP1 ISZERO PUSH2 0x627 JUMPI POP DUP1 JUMPDEST SWAP5 POP DUP5 DUP3 PUSH1 0x40 ADD MLOAD DUP4 PUSH1 0x0 ADD MLOAD SWAP5 POP SWAP5 POP SWAP5 POP POP POP SWAP3 POP SWAP3 POP SWAP3 JUMP JUMPDEST PUSH1 0x0 DUP1 DUP3 PUSH1 0x40 MLOAD PUSH2 0x654 SWAP2 SWAP1 PUSH2 0xD5E JUMP JUMPDEST SWAP1 DUP2 MSTORE PUSH1 0x20 ADD PUSH1 0x40 MLOAD DUP1 SWAP2 SUB SWAP1 KECCAK256 SWAP1 POP DUP1 PUSH1 0x4 ADD PUSH1 0x0 SWAP1 SLOAD SWAP1 PUSH2 0x100 EXP SWAP1 DIV PUSH1 0xFF AND PUSH2 0x6B5 JUMPI PUSH1 0x40 MLOAD PUSH32 0x8C379A000000000000000000000000000000000000000000000000000000000 DUP2 MSTORE PUSH1 0x4 ADD PUSH2 0x6AC SWAP1 PUSH2 0x10E9 JUMP JUMPDEST PUSH1 0x40 MLOAD DUP1 SWAP2 SUB SWAP1 REVERT JUMPDEST CALLER PUSH20 0xFFFFFFFFFFFFFFFFFFFFFFFFFFFFFFFFFFFFFFFF AND DUP2 PUSH1 0x0 ADD PUSH1 0x0 SWAP1 SLOAD SWAP1 PUSH2 0x100 EXP SWAP1 DIV PUSH20 0xFFFFFFFFFFFFFFFFFFFFFFFFFFFFFFFFFFFFFFFF AND PUSH20 0xFFFFFFFFFFFFFFFFFFFFFFFFFFFFFFFFFFFFFFFF AND EQ PUSH2 0x747 JUMPI PUSH1 0x40 MLOAD PUSH32 0x8C379A000000000000000000000000000000000000000000000000000000000 DUP2 MSTORE PUSH1 0x4 ADD PUSH2 0x73E SWAP1 PUSH2 0x11DC JUMP JUMPDEST PUSH1 0x40 MLOAD DUP1 SWAP2 SUB SWAP1 REVERT JUMPDEST PUSH1 0x40 MLOAD DUP1 PUSH1 0x40 ADD PUSH1 0x40 MSTORE DUP1 PUSH1 0x7 DUP2 MSTORE PUSH1 0x20 ADD PUSH32 0x5245564F4B454400000000000000000000000000000000000000000000000000 DUP2 MSTORE POP DUP2 PUSH1 0x2 ADD SWAP1 DUP2 PUSH2 0x78D SWAP2 SWAP1 PUSH2 0xF8D JUMP JUMPDEST POP PUSH32 0x2CB3975FC66CB3D547D2A4D7FD43FDC0C4E5377637F98D9037CA2BD00EEC7D5B DUP3 CALLER PUSH1 0x40 MLOAD PUSH2 0x7BF SWAP3 SWAP2 SWAP1 PUSH2 0x11FC JUMP JUMPDEST PUSH1 0x40 MLOAD DUP1 SWAP2 SUB SWAP1 LOG1 POP POP JUMP JUMPDEST PUSH1 0x1 DUP2 DUP2 SLOAD DUP2 LT PUSH2 0x7DB JUMPI PUSH1 0x0 DUP1 REVERT JUMPDEST SWAP1 PUSH1 0x0 MSTORE PUSH1 0x20 PUSH1 0x0 KECCAK256 ADD PUSH1 0x0 SWAP2 POP SWAP1 POP DUP1 SLOAD PUSH2 0x7F6 SWAP1 PUSH2 0xCF1 JUMP JUMPDEST DUP1 PUSH1 0x1F ADD PUSH1 0x20 DUP1 SWAP2 DIV MUL PUSH1 0x20 ADD PUSH1 0x40 MLOAD SWAP1 DUP2 ADD PUSH1 0x40 MSTORE DUP1 SWAP3 SWAP2 SWAP1 DUP2 DUP2 MSTORE PUSH1 0x20 ADD DUP3 DUP1 SLOAD PUSH2 0x822 SWAP1 PUSH2 0xCF1 JUMP JUMPDEST DUP1 ISZERO PUSH2 0x86F JUMPI DUP1 PUSH1 0x1F LT PUSH2 0x844 JUMPI PUSH2 0x100 DUP1 DUP4 SLOAD DIV MUL DUP4 MSTORE SWAP2 PUSH1 0x20 ADD SWAP2 PUSH2 0x86F JUMP JUMPDEST DUP3 ADD SWAP2 SWAP1 PUSH1 0x0 MSTORE PUSH1 0x20 PUSH1 0x0 KECCAK256 SWAP1 JUMPDEST DUP2 SLOAD DUP2 MSTORE SWAP1 PUSH1 0x1 ADD SWAP1 PUSH1 0x20 ADD DUP1 DUP4 GT PUSH2 0x852 JUMPI DUP3 SWAP1 SUB PUSH1 0x1F AND DUP3 ADD SWAP2 JUMPDEST POP POP POP POP POP DUP2 JUMP JUMPDEST PUSH1 0x0 PUSH1 0x40 MLOAD SWAP1 POP SWAP1 JUMP JUMPDEST PUSH1 0x0 DUP1 REVERT JUMPDEST PUSH1 0x0 DUP1 REVERT JUMPDEST PUSH1 0x0 DUP1 REVERT JUMPDEST PUSH1 0x0 DUP1 REVERT JUMPDEST PUSH1 0x0 PUSH1 0x1F NOT PUSH1 0x1F DUP4 ADD AND SWAP1 POP SWAP2 SWAP1 POP JUMP JUMPDEST PUSH32 0x4E487B7100000000000000000000000000000000000000000000000000000000 PUSH1 0x0 MSTORE PUSH1 0x41 PUSH1 0x4 MSTORE PUSH1 0x24 PUSH1 0x0 REVERT JUMPDEST PUSH2 0x8DE DUP3 PUSH2 0x895 JUMP JUMPDEST DUP2 ADD DUP2 DUP2 LT PUSH8 0xFFFFFFFFFFFFFFFF DUP3 GT OR ISZERO PUSH2 0x8FD JUMPI PUSH2 0x8FC PUSH2 0x8A6 JUMP JUMPDEST JUMPDEST DUP1 PUSH1 0x40 MSTORE POP POP POP JUMP JUMPDEST PUSH1 0x0 PUSH2 0x910 PUSH2 0x877 JUMP JUMPDEST SWAP1 POP PUSH2 0x91C DUP3 DUP3 PUSH2 0x8D5 JUMP JUMPDEST SWAP2 SWAP1 POP JUMP JUMPDEST PUSH1 0x0 PUSH8 0xFFFFFFFFFFFFFFFF DUP3 GT ISZERO PUSH2 0x93C JUMPI PUSH2 0x93B PUSH2 0x8A6 JUMP JUMPDEST JUMPDEST PUSH2 0x945 DUP3 PUSH2 0x895 JUMP JUMPDEST SWAP1 POP PUSH1 0x20 DUP2 ADD SWAP1 POP SWAP2 SWAP1 POP JUMP JUMPDEST DUP3 DUP2 DUP4 CALLDATACOPY PUSH1 0x0 DUP4 DUP4 ADD MSTORE POP POP POP JUMP JUMPDEST PUSH1 0x0 PUSH2 0x974 PUSH2 0x96F DUP5 PUSH2 0x921 JUMP JUMPDEST PUSH2 0x906 JUMP JUMPDEST SWAP1 POP DUP3 DUP2 MSTORE PUSH1 0x20 DUP2 ADD DUP5 DUP5 DUP5 ADD GT ISZERO PUSH2 0x990 JUMPI PUSH2 0x98F PUSH2 0x890 JUMP JUMPDEST JUMPDEST PUSH2 0x99B DUP5 DUP3 DUP6 PUSH2 0x952 JUMP JUMPDEST POP SWAP4 SWAP3 POP POP POP JUMP JUMPDEST PUSH1 0x0 DUP3 PUSH1 0x1F DUP4 ADD SLT PUSH2 0x9B8 JUMPI PUSH2 0x9B7 PUSH2 0x88B JUMP JUMPDEST JUMPDEST DUP2 CALLDATALOAD PUSH2 0x9C8 DUP5 DUP3 PUSH1 0x20 DUP7 ADD PUSH2 0x961 JUMP JUMPDEST SWAP2 POP POP SWAP3 SWAP2 POP POP JUMP JUMPDEST PUSH1 0x0 PUSH1 0x20 DUP3 DUP5 SUB SLT ISZERO PUSH2 0x9E7 JUMPI PUSH2 0x9E6 PUSH2 0x881 JUMP JUMPDEST JUMPDEST PUSH1 0x0 DUP3 ADD CALLDATALOAD PUSH8 0xFFFFFFFFFFFFFFFF DUP2 GT ISZERO PUSH2 0xA05 JUMPI PUSH2 0xA04 PUSH2 0x886 JUMP JUMPDEST JUMPDEST PUSH2 0xA11 DUP5 DUP3 DUP6 ADD PUSH2 0x9A3 JUMP JUMPDEST SWAP2 POP POP SWAP3 SWAP2 POP POP JUMP JUMPDEST PUSH1 0x0 PUSH20 0xFFFFFFFFFFFFFFFFFFFFFFFFFFFFFFFFFFFFFFFF DUP3 AND SWAP1 POP SWAP2 SWAP1 POP JUMP JUMPDEST PUSH1 0x0 PUSH2 0xA45 DUP3 PUSH2 0xA1A JUMP JUMPDEST SWAP1 POP SWAP2 SWAP1 POP JUMP JUMPDEST PUSH2 0xA55 DUP2 PUSH2 0xA3A JUMP JUMPDEST DUP3 MSTORE POP POP JUMP JUMPDEST PUSH1 0x0 DUP2 SWAP1 POP SWAP2 SWAP1 POP JUMP JUMPDEST PUSH2 0xA6E DUP2 PUSH2 0xA5B JUMP JUMPDEST DUP3 MSTORE POP POP JUMP JUMPDEST PUSH1 0x0 DUP2 MLOAD SWAP1 POP SWAP2 SWAP1 POP JUMP JUMPDEST PUSH1 0x0 DUP3 DUP3 MSTORE PUSH1 0x20 DUP3 ADD SWAP1 POP SWAP3 SWAP2 POP POP JUMP JUMPDEST PUSH1 0x0 JUMPDEST DUP4 DUP2 LT ISZERO PUSH2 0xAAE JUMPI DUP1 DUP3 ADD MLOAD DUP2 DUP5 ADD MSTORE PUSH1 0x20 DUP2 ADD SWAP1 POP PUSH2 0xA93 JUMP JUMPDEST PUSH1 0x0 DUP5 DUP5 ADD MSTORE POP POP POP POP JUMP JUMPDEST PUSH1 0x0 PUSH2 0xAC5 DUP3 PUSH2 0xA74 JUMP JUMPDEST PUSH2 0xACF DUP2 DUP6 PUSH2 0xA7F JUMP JUMPDEST SWAP4 POP PUSH2 0xADF DUP2 DUP6 PUSH1 0x20 DUP7 ADD PUSH2 0xA90 JUMP JUMPDEST PUSH2 0xAE8 DUP2 PUSH2 0x895 JUMP JUMPDEST DUP5 ADD SWAP2 POP POP SWAP3 SWAP2 POP POP JUMP JUMPDEST PUSH1 0x0 DUP2 SWAP1 POP SWAP2 SWAP1 POP JUMP JUMPDEST PUSH2 0xB06 DUP2 PUSH2 0xAF3 JUMP JUMPDEST DUP3 MSTORE POP POP JUMP JUMPDEST PUSH1 0x0 DUP2 ISZERO ISZERO SWAP1 POP SWAP2 SWAP1 POP JUMP JUMPDEST PUSH2 0xB21 DUP2 PUSH2 0xB0C JUMP JUMPDEST DUP3 MSTORE POP POP JUMP JUMPDEST PUSH1 0x0 PUSH1 0xA0 DUP3 ADD SWAP1 POP PUSH2 0xB3C PUSH1 0x0 DUP4 ADD DUP9 PUSH2 0xA4C JUMP JUMPDEST PUSH2 0xB49 PUSH1 0x20 DUP4 ADD DUP8 PUSH2 0xA65 JUMP JUMPDEST DUP2 DUP2 SUB PUSH1 0x40 DUP4 ADD MSTORE PUSH2 0xB5B DUP2 DUP7 PUSH2 0xABA JUMP JUMPDEST SWAP1 POP PUSH2 0xB6A PUSH1 0x60 DUP4 ADD DUP6 PUSH2 0xAFD JUMP JUMPDEST PUSH2 0xB77 PUSH1 0x80 DUP4 ADD DUP5 PUSH2 0xB18 JUMP JUMPDEST SWAP7 SWAP6 POP POP POP POP POP POP JUMP JUMPDEST PUSH2 0xB8A DUP2 PUSH2 0xA5B JUMP JUMPDEST DUP2 EQ PUSH2 0xB95 JUMPI PUSH1 0x0 DUP1 REVERT JUMPDEST POP JUMP JUMPDEST PUSH1 0x0 DUP2 CALLDATALOAD SWAP1 POP PUSH2 0xBA7 DUP2 PUSH2 0xB81 JUMP JUMPDEST SWAP3 SWAP2 POP POP JUMP JUMPDEST PUSH1 0x0 DUP1 PUSH1 0x40 DUP4 DUP6 SUB SLT ISZERO PUSH2 0xBC4 JUMPI PUSH2 0xBC3 PUSH2 0x881 JUMP JUMPDEST JUMPDEST PUSH1 0x0 DUP4 ADD CALLDATALOAD PUSH8 0xFFFFFFFFFFFFFFFF DUP2 GT ISZERO PUSH2 0xBE2 JUMPI PUSH2 0xBE1 PUSH2 0x886 JUMP JUMPDEST JUMPDEST PUSH2 0xBEE DUP6 DUP3 DUP7 ADD PUSH2 0x9A3 JUMP JUMPDEST SWAP3 POP POP PUSH1 0x20 PUSH2 0xBFF DUP6 DUP3 DUP7 ADD PUSH2 0xB98 JUMP JUMPDEST SWAP2 POP POP SWAP3 POP SWAP3 SWAP1 POP JUMP JUMPDEST PUSH1 0x0 PUSH1 0x60 DUP3 ADD SWAP1 POP PUSH2 0xC1E PUSH1 0x0 DUP4 ADD DUP7 PUSH2 0xB18 JUMP JUMPDEST DUP2 DUP2 SUB PUSH1 0x20 DUP4 ADD MSTORE PUSH2 0xC30 DUP2 DUP6 PUSH2 0xABA JUMP JUMPDEST SWAP1 POP PUSH2 0xC3F PUSH1 0x40 DUP4 ADD DUP5 PUSH2 0xA4C JUMP JUMPDEST SWAP5 SWAP4 POP POP POP POP JUMP JUMPDEST PUSH2 0xC50 DUP2 PUSH2 0xAF3 JUMP JUMPDEST DUP2 EQ PUSH2 0xC5B JUMPI PUSH1 0x0 DUP1 REVERT JUMPDEST POP JUMP JUMPDEST PUSH1 0x0 DUP2 CALLDATALOAD SWAP1 POP PUSH2 0xC6D DUP2 PUSH2 0xC47 JUMP JUMPDEST SWAP3 SWAP2 POP POP JUMP JUMPDEST PUSH1 0x0 PUSH1 0x20 DUP3 DUP5 SUB SLT ISZERO PUSH2 0xC89 JUMPI PUSH2 0xC88 PUSH2 0x881 JUMP JUMPDEST JUMPDEST PUSH1 0x0 PUSH2 0xC97 DUP5 DUP3 DUP6 ADD PUSH2 0xC5E JUMP JUMPDEST SWAP2 POP POP SWAP3 SWAP2 POP POP JUMP JUMPDEST PUSH1 0x0 PUSH1 0x20 DUP3 ADD SWAP1 POP DUP2 DUP2 SUB PUSH1 0x0 DUP4 ADD MSTORE PUSH2 0xCBA DUP2 DUP5 PUSH2 0xABA JUMP JUMPDEST SWAP1 POP SWAP3 SWAP2 POP POP JUMP JUMPDEST PUSH32 0x4E487B7100000000000000000000000000000000000000000000000000000000 PUSH1 0x0 MSTORE PUSH1 0x22 PUSH1 0x4 MSTORE PUSH1 0x24 PUSH1 0x0 REVERT JUMPDEST PUSH1 0x0 PUSH1 0x2 DUP3 DIV SWAP1 POP PUSH1 0x1 DUP3 AND DUP1 PUSH2 0xD09 JUMPI PUSH1 0x7F DUP3 AND SWAP2 POP JUMPDEST PUSH1 0x20 DUP3 LT DUP2 SUB PUSH2 0xD1C JUMPI PUSH2 0xD1B PUSH2 0xCC2 JUMP JUMPDEST JUMPDEST POP SWAP2 SWAP1 POP JUMP JUMPDEST PUSH1 0x0 DUP2 SWAP1 POP SWAP3 SWAP2 POP POP JUMP JUMPDEST PUSH1 0x0 PUSH2 0xD38 DUP3 PUSH2 0xA74 JUMP JUMPDEST PUSH2 0xD42 DUP2 DUP6 PUSH2 0xD22 JUMP JUMPDEST SWAP4 POP PUSH2 0xD52 DUP2 DUP6 PUSH1 0x20 DUP7 ADD PUSH2 0xA90 JUMP JUMPDEST DUP1 DUP5 ADD SWAP2 POP POP SWAP3 SWAP2 POP POP JUMP JUMPDEST PUSH1 0x0 PUSH2 0xD6A DUP3 DUP5 PUSH2 0xD2D JUMP JUMPDEST SWAP2 POP DUP2 SWAP1 POP SWAP3 SWAP2 POP POP JUMP JUMPDEST PUSH32 0x4D53445320494420737564616820616461210000000000000000000000000000 PUSH1 0x0 DUP3 ADD MSTORE POP JUMP JUMPDEST PUSH1 0x0 PUSH2 0xDAB PUSH1 0x12 DUP4 PUSH2 0xA7F JUMP JUMPDEST SWAP2 POP PUSH2 0xDB6 DUP3 PUSH2 0xD75 JUMP JUMPDEST PUSH1 0x20 DUP3 ADD SWAP1 POP SWAP2 SWAP1 POP JUMP JUMPDEST PUSH1 0x0 PUSH1 0x20 DUP3 ADD SWAP1 POP DUP2 DUP2 SUB PUSH1 0x0 DUP4 ADD MSTORE PUSH2 0xDDA DUP2 PUSH2 0xD9E JUMP JUMPDEST SWAP1 POP SWAP2 SWAP1 POP JUMP JUMPDEST PUSH1 0x0 DUP2 SWAP1 POP DUP2 PUSH1 0x0 MSTORE PUSH1 0x20 PUSH1 0x0 KECCAK256 SWAP1 POP SWAP2 SWAP1 POP JUMP JUMPDEST PUSH1 0x0 PUSH1 0x20 PUSH1 0x1F DUP4 ADD DIV SWAP1 POP SWAP2 SWAP1 POP JUMP JUMPDEST PUSH1 0x0 DUP3 DUP3 SHL SWAP1 POP SWAP3 SWAP2 POP POP JUMP JUMPDEST PUSH1 0x0 PUSH1 0x8 DUP4 MUL PUSH2 0xE43 PUSH32 0xFFFFFFFFFFFFFFFFFFFFFFFFFFFFFFFFFFFFFFFFFFFFFFFFFFFFFFFFFFFFFFFF DUP3 PUSH2 0xE06 JUMP JUMPDEST PUSH2 0xE4D DUP7 DUP4 PUSH2 0xE06 JUMP JUMPDEST SWAP6 POP DUP1 NOT DUP5 AND SWAP4 POP DUP1 DUP7 AND DUP5 OR SWAP3 POP POP POP SWAP4 SWAP3 POP POP POP JUMP JUMPDEST PUSH1 0x0 DUP2 SWAP1 POP SWAP2 SWAP1 POP JUMP JUMPDEST PUSH1 0x0 PUSH2 0xE8A PUSH2 0xE85 PUSH2 0xE80 DUP5 PUSH2 0xAF3 JUMP JUMPDEST PUSH2 0xE65 JUMP JUMPDEST PUSH2 0xAF3 JUMP JUMPDEST SWAP1 POP SWAP2 SWAP1 POP JUMP JUMPDEST PUSH1 0x0 DUP2 SWAP1 POP SWAP2 SWAP1 POP JUMP JUMPDEST PUSH2 0xEA4 DUP4 PUSH2 0xE6F JUMP JUMPDEST PUSH2 0xEB8 PUSH2 0xEB0 DUP3 PUSH2 0xE91 JUMP JUMPDEST DUP5 DUP5 SLOAD PUSH2 0xE13 JUMP JUMPDEST DUP3 SSTORE POP POP POP POP JUMP JUMPDEST PUSH1 0x0 SWAP1 JUMP JUMPDEST PUSH2 0xECD PUSH2 0xEC0 JUMP JUMPDEST PUSH2 0xED8 DUP2 DUP5 DUP5 PUSH2 0xE9B JUMP JUMPDEST POP POP POP JUMP JUMPDEST JUMPDEST DUP2 DUP2 LT ISZERO PUSH2 0xEFC JUMPI PUSH2 0xEF1 PUSH1 0x0 DUP3 PUSH2 0xEC5 JUMP JUMPDEST PUSH1 0x1 DUP2 ADD SWAP1 POP PUSH2 0xEDE JUMP JUMPDEST POP POP JUMP JUMPDEST PUSH1 0x1F DUP3 GT ISZERO PUSH2 0xF41 JUMPI PUSH2 0xF12 DUP2 PUSH2 0xDE1 JUMP JUMPDEST PUSH2 0xF1B DUP5 PUSH2 0xDF6 JUMP JUMPDEST DUP2 ADD PUSH1 0x20 DUP6 LT ISZERO PUSH2 0xF2A JUMPI DUP2 SWAP1 POP JUMPDEST PUSH2 0xF3E PUSH2 0xF36 DUP6 PUSH2 0xDF6 JUMP JUMPDEST DUP4 ADD DUP3 PUSH2 0xEDD JUMP JUMPDEST POP POP JUMPDEST POP POP POP JUMP JUMPDEST PUSH1 0x0 DUP3 DUP3 SHR SWAP1 POP SWAP3 SWAP2 POP POP JUMP JUMPDEST PUSH1 0x0 PUSH2 0xF64 PUSH1 0x0 NOT DUP5 PUSH1 0x8 MUL PUSH2 0xF46 JUMP JUMPDEST NOT DUP1 DUP4 AND SWAP2 POP POP SWAP3 SWAP2 POP POP JUMP JUMPDEST PUSH1 0x0 PUSH2 0xF7D DUP4 DUP4 PUSH2 0xF53 JUMP JUMPDEST SWAP2 POP DUP3 PUSH1 0x2 MUL DUP3 OR SWAP1 POP SWAP3 SWAP2 POP POP JUMP JUMPDEST PUSH2 0xF96 DUP3 PUSH2 0xA74 JUMP JUMPDEST PUSH8 0xFFFFFFFFFFFFFFFF DUP2 GT ISZERO PUSH2 0xFAF JUMPI PUSH2 0xFAE PUSH2 0x8A6 JUMP JUMPDEST JUMPDEST PUSH2 0xFB9 DUP3 SLOAD PUSH2 0xCF1 JUMP JUMPDEST PUSH2 0xFC4 DUP3 DUP3 DUP6 PUSH2 0xF00 JUMP JUMPDEST PUSH1 0x0 PUSH1 0x20 SWAP1 POP PUSH1 0x1F DUP4 GT PUSH1 0x1 DUP2 EQ PUSH2 0xFF7 JUMPI PUSH1 0x0 DUP5 ISZERO PUSH2 0xFE5 JUMPI DUP3 DUP8 ADD MLOAD SWAP1 POP JUMPDEST PUSH2 0xFEF DUP6 DUP3 PUSH2 0xF71 JUMP JUMPDEST DUP7 SSTORE POP PUSH2 0x1057 JUMP JUMPDEST PUSH1 0x1F NOT DUP5 AND PUSH2 0x1005 DUP7 PUSH2 0xDE1 JUMP JUMPDEST PUSH1 0x0 JUMPDEST DUP3 DUP2 LT ISZERO PUSH2 0x102D JUMPI DUP5 DUP10 ADD MLOAD DUP3 SSTORE PUSH1 0x1 DUP3 ADD SWAP2 POP PUSH1 0x20 DUP6 ADD SWAP5 POP PUSH1 0x20 DUP2 ADD SWAP1 POP PUSH2 0x1008 JUMP JUMPDEST DUP7 DUP4 LT ISZERO PUSH2 0x104A JUMPI DUP5 DUP10 ADD MLOAD PUSH2 0x1046 PUSH1 0x1F DUP10 AND DUP3 PUSH2 0xF53 JUMP JUMPDEST DUP4 SSTORE POP JUMPDEST PUSH1 0x1 PUSH1 0x2 DUP9 MUL ADD DUP9 SSTORE POP POP POP JUMPDEST POP POP POP POP POP POP JUMP JUMPDEST PUSH1 0x0 PUSH1 0x60 DUP3 ADD SWAP1 POP DUP2 DUP2 SUB PUSH1 0x0 DUP4 ADD MSTORE PUSH2 0x1079 DUP2 DUP7 PUSH2 0xABA JUMP JUMPDEST SWAP1 POP PUSH2 0x1088 PUSH1 0x20 DUP4 ADD DUP6 PUSH2 0xA4C JUMP JUMPDEST PUSH2 0x1095 PUSH1 0x40 DUP4 ADD DUP5 PUSH2 0xA65 JUMP JUMPDEST SWAP5 SWAP4 POP POP POP POP JUMP JUMPDEST PUSH32 0x4D53445320494420746964616B20646974656D756B616E210000000000000000 PUSH1 0x0 DUP3 ADD MSTORE POP JUMP JUMPDEST PUSH1 0x0 PUSH2 0x10D3 PUSH1 0x18 DUP4 PUSH2 0xA7F JUMP JUMPDEST SWAP2 POP PUSH2 0x10DE DUP3 PUSH2 0x109D JUMP JUMPDEST PUSH1 0x20 DUP3 ADD SWAP1 POP SWAP2 SWAP1 POP JUMP JUMPDEST PUSH1 0x0 PUSH1 0x20 DUP3 ADD SWAP1 POP DUP2 DUP2 SUB PUSH1 0x0 DUP4 ADD MSTORE PUSH2 0x1102 DUP2 PUSH2 0x10C6 JUMP JUMPDEST SWAP1 POP SWAP2 SWAP1 POP JUMP JUMPDEST PUSH32 0x4143544956450000000000000000000000000000000000000000000000000000 PUSH1 0x0 DUP3 ADD MSTORE POP JUMP JUMPDEST PUSH1 0x0 PUSH2 0x113F PUSH1 0x6 DUP4 PUSH2 0xD22 JUMP JUMPDEST SWAP2 POP PUSH2 0x114A DUP3 PUSH2 0x1109 JUMP JUMPDEST PUSH1 0x6 DUP3 ADD SWAP1 POP SWAP2 SWAP1 POP JUMP JUMPDEST PUSH1 0x0 PUSH2 0x1160 DUP3 PUSH2 0x1132 JUMP JUMPDEST SWAP2 POP DUP2 SWAP1 POP SWAP2 SWAP1 POP JUMP JUMPDEST PUSH32 0x48616E79612070656D696C696B2079616E672062697361206D656E6361627574 PUSH1 0x0 DUP3 ADD MSTORE PUSH32 0x2100000000000000000000000000000000000000000000000000000000000000 PUSH1 0x20 DUP3 ADD MSTORE POP JUMP JUMPDEST PUSH1 0x0 PUSH2 0x11C6 PUSH1 0x21 DUP4 PUSH2 0xA7F JUMP JUMPDEST SWAP2 POP PUSH2 0x11D1 DUP3 PUSH2 0x116A JUMP JUMPDEST PUSH1 0x40 DUP3 ADD SWAP1 POP SWAP2 SWAP1 POP JUMP JUMPDEST PUSH1 0x0 PUSH1 0x20 DUP3 ADD SWAP1 POP DUP2 DUP2 SUB PUSH1 0x0 DUP4 ADD MSTORE PUSH2 0x11F5 DUP2 PUSH2 0x11B9 JUMP JUMPDEST SWAP1 POP SWAP2 SWAP1 POP JUMP JUMPDEST PUSH1 0x0 PUSH1 0x40 DUP3 ADD SWAP1 POP DUP2 DUP2 SUB PUSH1 0x0 DUP4 ADD MSTORE PUSH2 0x1216 DUP2 DUP6 PUSH2 0xABA JUMP JUMPDEST SWAP1 POP PUSH2 0x1225 PUSH1 0x20 DUP4 ADD DUP5 PUSH2 0xA4C JUMP JUMPDEST SWAP4 SWAP3 POP POP POP JUMP INVALID LOG2 PUSH5 0x6970667358 0x22 SLT KECCAK256 0x2C ORIGIN 0xB9 0xCE 0x23 0xB3 0xE5 PUSH31 0x6FB83B4ED0940FAB5500C92B7564ABDD37E5B3A1E6ED380B64736F6C634300 ADDMOD EQ STOP CALLER "},"methodIdentifiers":{"msdsIdList(uint256)":"d7081774","msdsRecords(string)":"7936ade6","registerMSDS(string,bytes32)":"8265a25c","revokeMSDS(string)":"a7d74314","verifyMSDS(string,bytes32)":"a3c9823b"}}}}}